:020000040000FA
:100000000C9463000C948B000C948B000C948B006C
:100010000C948B000C948B000C948B000C948B0034
:100020000C948B000C948B000C948B000C948B0024
:100030000C948B000C948B000C948B000C948B0014
:100040000C949E040C948B000C948B000C948B00ED
:100050000C948B000C948B000C948B000C948B00F4
:100060000C948B000C948B000000000024002700EF
:100070002A0000000000250028002B0000000000DE
:1000800023002600290004040404040404040202DA
:100090000202020203030303030301020408102007
:1000A0004080010204081020010204081020000012
:1000B0000008000201000003040700000000000027
:1000C0000000F707950811241FBECFEFD8E0DEBF70
:1000D000CDBF21E0A4E4B1E001C01D92AB3EB20768
:1000E000E1F711E0A0E0B1E0E0E0F7E102C0059047
:1000F0000D92A434B107D9F710E0C2E6D0E004C0F5
:100100002197FE010E947B09C136D107C9F70E94E1
:10011000E8040C94730B0C94000096E0899FD001C6
:100120001124A05ABE4F90967C936E935F9791E0F6
:1001300091969C939197E091CD01F091CE01909191
:10014000CC01992339F0309751F0811108C080918A
:100150007C010994309719F05C968C91FACF089540
:10016000CF92DF92EF92FF920F931F9396E0899FB9
:10017000F0011124E05AFE4F11A2278D30A1213049
:10018000310551F178F02230310509F451C02330A6
:10019000310509F452C01F910F91FF90EF90DF904D
:1001A000CF9008956623B9F361E070E00E948D005E
:1001B0002FB7F89480915C0190915D01A0915E0150
:1001C000B0915F012FBF8093B8019093B901A093C4
:1001D000BA01B093BB01DFCF9FB7F894C0905C0128
:1001E000D0905D01E0905E01F0905F019FBF0091B3
:1001F000B8011091B9012091BA013091BB01C01A28
:10020000D10AE20AF30A0091CA011091CB0130E051
:1002100020E00C151D052E053F0550F462E070E04E
:100220001F910F91FF90EF90DF90CF900C948D0075
:100230006111B1CF63E070E0F3CF70E060E0F0CF28
:10024000AF92BF92CF92DF92EF92FF920F931F93E4
:10025000CF93DF936C017B018B01040F151FEB0122
:100260005E01AE18BF08C017D10759F06991D601D9
:10027000ED91FC910190F081E02DC6010995892B4B
:1002800079F7C501DF91CF911F910F91FF90EF900A
:10029000DF90CF90BF90AF900895833081F028F425
:1002A000813099F08230A9F008958730A9F0883024
:1002B000C9F08430B1F4809180008F7D03C08091BB
:1002C00080008F7780938000089584B58F7784BDF8
:1002D000089584B58F7DFBCF8091B0008F77809398
:1002E000B00008958091B0008F7DF9CFCF93DF9358
:1002F000282F30E0F901E255FF4F8491F901E656CD
:10030000FF4FD491F901EA57FF4FC491CC23A1F0DC
:1003100081110E944D01EC2FF0E0EE0FFF1FE45819
:10032000FF4FA591B491EC91ED2381E090E009F4A9
:1003300080E0DF91CF91089580E090E0FACF862FA2
:100340000C9476011F93CF93DF93282F30E0F901AF
:10035000E255FF4F8491F901E656FF4FD491F90120
:10036000EA57FF4FC491CC23A9F0162F81110E94A8
:100370004D01EC2FF0E0EE0FFF1FEE58FF4FA5915F
:10038000B4918FB7F894EC91111108C0D095DE2389
:10039000DC938FBFDF91CF911F910895DE2BF8CFB3
:1003A000862F642F0C94A201CF93DF9390E0FC0181
:1003B000E656FF4F24918A579F4FFC018491882372
:1003C000C9F090E0880F991FFC01E859FF4FA591F3
:1003D000B491FC01EE58FF4FC591D49161110DC04D
:1003E0009FB7F8948C91209582238C938881282341
:1003F00028839FBFDF91CF910895623051F49FB75A
:10040000F8943C91822F809583238C93E8812E2B46
:10041000EFCF8FB7F894EC912E2B2C938FBFEACFB0
:10042000862F642F0C94D4013FB7F8948091450136
:1004300090914601A0914701B091480126B5A89B33
:1004400005C02F3F19F00196A11DB11D3FBFBA2F66
:10045000A92F982F8827BC01CD01620F711D811D26
:10046000911D42E0660F771F881F991F4A95D1F7AB
:100470000895089590E080E008958F929F92AF9242
:10048000BF920F931F93CF93DF93CDB7DEB7A197A2
:100490000FB6F894DEBF0FBECDBF19A2423008F4EC
:1004A0004AE08E010F5D1F4F842E912CB12CA12CA0
:1004B000A50194010E943A09E62FB901CA01EA3068
:1004C00044F5E05DD801EE938D01232B242B252BE1
:1004D00079F790E080E0109769F0FD01019000202D
:1004E000E9F73197AF014A1B5B0BBD018FEC91E03F
:1004F0000E942001A1960FB6F894DEBF0FBECDBFBB
:10050000DF91CF911F910F91BF90AF909F908F90EF
:100510000895E95CD7CFCF93DF93EC0160E08E8143
:100520000E94A20161E08E810E94A20160E08E81A2
:100530000E94A2018BE891E00197F1F7DF91CF9142
:100540000895CF92DF92EF92FF920F931F93CF9374
:10055000DF936C017C0187E0E80EF11CD0E0C0E085
:10056000062F10E0B8010C2E02C0759567950A940D
:10057000E2F76170F70181917F010E94A20121964B
:10058000C430D10579F7C601DF91CF911F910F914A
:10059000FF90EF90DF90CF900C948B02CF92DF9280
:1005A000EF92FF920F931F93CF93DF93EC01F62E00
:1005B000642F8C810E94A2018D818F3F19F060E031
:1005C0000E94A2010F2D10E08F8584FF25C06E01CF
:1005D00087E0C80ED11CF12CE12CB8010E2C02C012
:1005E000759567950A94E2F76170F60181916F0144
:1005F0000E94A201FFEFEF1AFF0A88E0E816F1045B
:1006000061F7CE01DF91CF911F910F91FF90EF9095
:10061000DF90CF900C948B02B80184E075956795BC
:100620008A95E1F7CE010E94A1026F2DCE01DF91E4
:10063000CF911F910F91FF90EF90DF90CF900C948E
:10064000A10240E0682F8FEC91E00C94CE0281E093
:100650000E9421038BE39FE10197F1F70895CF9367
:10066000DF93823029F49091DE0198609093DE014F
:100670008093E2011092E30180E48093E40180E141
:100680008093E50180E58093E60161E08091D301EC
:100690000E94D4018091D4018F3F19F061E00E9443
:1006A000D40161E08091D5010E94D401CFECD1E06A
:1006B0009E012F5C31408091DE0184FD0BC084E0FF
:1006C00090E021962817390744F461E08E810E945A
:1006D000D401EECF88E090E0F4CF8BE39DE001976A
:1006E000F1F760E08091D3010E94A20160E0809167
:1006F000D5010E94A2018091D4018F3F19F060E0E2
:100700000E94A2018091DE0184FD34C063E08FEC81
:1007100091E00E94A102CBE4D6E4CE010197F1F76B
:1007200063E08FEC91E00E94A1022197F1F763E072
:100730008FEC91E00E94A10283E592E00197F1F72E
:1007400062E08FEC91E00E94A1028091DE01806264
:100750000E94210384E08093DF018CE00E9421034A
:100760000E94270382E08093E00186E0DF91CF9131
:100770000C94210380620E9421038BE496E401978C
:10078000F1F78091DE0180620E94210383E592E00F
:100790000197F1F78091DE0180620E942103D5CF9D
:1007A0009091E201691710F06FEF690FE62FF0E00A
:1007B000E153FE4F9489890F80680C94210341E036
:1007C0000E94CE0281E090E00895FC018081918139
:1007D000009711F00C949D0860E070E0CB01089543
:1007E0000F931F93CF93DF93EC018881998100973A
:1007F00059F02A813B812617370730F081E0DF91DD
:10080000CF911F910F9108958B016F5F7F4F0E94D1
:10081000A60A009759F0998388831B830A832C8149
:100820003D81232B59F7FC011082E8CF80E0E7CF10
:10083000CF93DF93EC0188819981009711F00E949A
:100840001D0A198218821D821C821B821A82DF9166
:10085000CF910895EF92FF920F931F93CF93DF9361
:1008600000D0CDB7DEB78C0169831A82FC01E48029
:10087000F580FFEFEF1AFF0AB7010E94F00388230B
:10088000C9F0F8012081318184819581BE016F5FBB
:100890007F4F820F931F0E946C0BF801F582E48258
:1008A000C8010F900F90DF91CF911F910F91FF9092
:1008B000EF900895C8010E941804F2CFEF92FF92C2
:1008C0000F931F93CF93DF93EC017B018A01BA0151
:1008D0000E94F00381110BC0CE010E941804CE01CA
:1008E000DF91CF911F910F91FF90EF9008951D839D
:1008F0000C83B701888199810E946C0BF0CFCF9354
:10090000DF93EC01FB018617970749F06081718145
:100910006115710541F0448155810E945E04CE014C
:10092000DF91CF9108950E941804F9CFFC018081D6
:100930009181009711F00C941D0A08951F920F9257
:100940000FB60F9211242F933F938F939F93AF93E2
:10095000BF9380915C0190915D01A0915E01B09187
:100960005F013091440123E0230F2D3758F50196A4
:10097000A11DB11D2093440180935C0190935D0102
:10098000A0935E01B0935F01809145019091460173
:10099000A0914701B09148010196A11DB11D80931E
:1009A000450190934601A0934701B0934801BF9140
:1009B000AF919F918F913F912F910F900FBE0F900C
:1009C0001F90189526E8230F0296A11DB11DD2CFC6
:1009D000CF93DF9300D000D000D0CDB7DEB77894AE
:1009E00084B5826084BD84B5816084BD85B5826034
:1009F00085BD85B5816085BD80916E0081608093E5
:100A00006E0010928100809181008260809381004D
:100A1000809181008160809381008091800081605D
:100A2000809380008091B10084608093B1008091B8
:100A3000B00081608093B00080917A0084608093E0
:100A40007A0080917A00826080937A0080917A00A7
:100A5000816080937A0080917A00806880937A0028
:100A60001092C10082E00E942F0360E082E00E94A9
:100A7000D0034EE050E064E371E08FEC91E00E941F
:100A800020010E9414024B015C0158EEC52E53E078
:100A9000D52EE12CF12C0E941402681979098A09DB
:100AA0009B09683E734081059105A8F321E0C21AB5
:100AB000D108E108F10858EE850E53E0951EA11CFF
:100AC000B11CC114D104E104F10429F70E942703E9
:100AD000412C512C3201439440E0A42E40E0B42E2E
:100AE000F1E0F093CC018FB7F89440915C01509104
:100AF0005D0160915E0170915F018FBF8091BC01CB
:100B00009091BD01A091BE01B091BF01481B590B4E
:100B10006A0B7B0B8091C8019091C901B0E0A0E005
:100B200084179507A607B70708F012C110E0809157
:100B3000C601181760F4E091C201F091C301E10F02
:100B4000F11D62E080810E94D4011F5FF0CF312C43
:100B50008091C701381608F061C0E32CF12CE091B8
:100B6000C401F091C501EE0DFF1D61E080810E947E
:100B7000D401E091C401F091C501EE0DFF1D60E0CC
:100B800080810E94A201D301C201032C04C0880FFE
:100B9000991FAA1FBB1F0A94D2F74C016C01C09485
:100BA000D094212C8091C601281608F5022D10E062
:100BB000E091C201F091C301E00FF11F80810E941A
:100BC00076010C5F1F4F000F111FF801E05AFE4F16
:100BD000892B41F48081918188299929918380838F
:100BE0002394E0CF808191818C219D21F7CFE091EA
:100BF000C401F091C501EE0DFF1D61E080810E94EE
:100C0000A2018091C4019091C501E80EF91E60E037
:100C1000F70180810E94D40133949ACF00E611E05D
:100C20007801F701878D90A1892B31F4148E8FEF15
:100C30009FEF968F858F11A296E0E90EF11CECE9EB
:100C4000EE16E1E0FE0669F7D12C8091C601D816B8
:100C500008F053C0C12C8D2C912C880C991CC40118
:100C600088599E4F4C012091C701C21608F043C01D
:100C7000F401608171810C2C02C0769567950A940D
:100C8000E2F7D29E900111242C0D311DE0E6F1E037
:100C900080E0458D568D2417350709F4A6C18F5F76
:100CA00036968A30B1F760FF24C0E0E6F1E090E0CC
:100CB00080E0448D411118C0E091C001F091C10164
:100CC000E20FF31F408156E0589FF001599FF00D4D
:100CD0001124E05AFE4F448F368F258F10A2178EB5
:100CE00061E00E94B00005C0019636968A309105F9
:100CF00001F7C394B8CFD394A8CF80E0F80191A1B5
:100D00009111892F0A5F1F4FE016F106B9F79FB7BF
:100D1000F89440915C0150915D0160915E01709189
:100D20005F019FBF4093BC015093BD016093BE0122
:100D30007093BF01882361F080918101882341F085
:100D400080917F019091800110917C01019719F0B1
:100D50001092CC0110E080915B0190ED910F9A30E0
:100D600008F061C01A8219821C821B821E821D82B9
:100D700081112EC065E571E0CE0101960E947F04CD
:100D8000612FCE0101960E942A04BC0185E591E005
:100D90000E947F04CE0101960E9496049091590111
:100DA00060E08FE0891B0E94D0034091590150916F
:100DB0005A0160915501709156018FEC91E00E94AB
:100DC0002001A114B10409F48BCE0E94000088CE4A
:100DD0006FE471E0CE0101960E947F04612FCE0185
:100DE00001960E942A04BC018FE491E00E947F04D6
:100DF000CE0101960E9496049091530161E08FE02C
:100E0000891B0E94D003409153015091540160917D
:100E10004F01709150018FEC91E00E942001F1E0B0
:100E2000F0934E01CECF81111AC01123C1F01837B3
:100E300031F01D3221F0812F8B7F8B3281F421E044
:100E400020935B0110934D0160E08FE00E94D0037E
:100E500041E0612F8FEC91E00E94CE02B2CF8091F1
:100E60004E01882309F49CC0112309F4AACF1D3335
:100E700009F096C080914D018B3209F04BC085E599
:100E800091E00E94E5036B017C018FE491E00E94F8
:100E9000E503C60ED71EE81EF91EC0924901D09286
:100EA0004A01E0924B01F0924C010E94270360E05E
:100EB0008FE00E94D0038091E001982F9160909381
:100EC000E00185600E942103C0904901D0904A0151
:100ED000E0904B01F0904C014AE0C701B601F7FEEB
:100EE0000EC041E06DE28FEC91E00E94CE026627D9
:100EF0007727CB016C197D098E099F094AE00E9472
:100F00003D028091E0018E7F8093E00184600E9429
:100F1000210357CF8D3279F485E591E00E94E503F6
:100F20006B017C018FE491E00E94E503C61AD70AA9
:100F3000E80AF90AB2CF8837B9F485E591E00E9452
:100F4000E5036B017C018FE491E00E94E503A701BA
:100F500096010E942A096093490170934A01809387
:100F60004B0190934C01A1CF8F3209F09ECF85E5C4
:100F700091E00E94E5036B017C018FE491E00E9407
:100F8000E5039B01AC01C701B6010E945C092093F7
:100F9000490130934A0140934B0150934C0185CF56
:100FA000133409F00ECF0E94270310925B011092B8
:100FB0004E0150E040E062E471E085E591E00E947E
:100FC0005E0450E040E062E471E08FE491E00E9452
:100FD0005E041092490110924A0110924B01109246
:100FE0004C0150E250934D01ECCE61707ACE1092DC
:100FF000D2011092D1018CE291E09093D0018093C4
:10100000CF018DE08093D3018FEF8093D4018CE0EA
:101010008093D5018BE08093D6018AE08093D7013D
:1010200089E08093D80188E08093D9011092DA0199
:101030001092DB011092DC011092DD011092DE01B2
:1010400081E00E942F0310926201109266011092BB
:1010500065011092670182E291E0909361018093B3
:101060006001ECE7F1E0108214821382158236965B
:1010700081E0E83BF807B9F784E091E09093C30181
:101080008093C20180E091E09093C5018093C401F8
:1010900084E08093C6018093C70188E091E090933B
:1010A000C1018093C0018AE090E09093C9018093D0
:1010B000C80184EF91E09093CB018093CA01109214
:1010C000CE011092CD011092BC011092BD01109280
:1010D000BE011092BF011092CC01109256011092E5
:1010E0005501109258011092570110925A01109216
:1010F000590150E040E062E471E085E591E00E9432
:101100005E041092500110924F0110925201109201
:101110005101109254011092530150E040E062E4FA
:1011200071E08FE491E00C945E048FE491E00E9402
:10113000960485E591E00C9496041F93FC01992791
:101140008827BC01E89411911032E9F3193010F0AE
:101150001E30C8F31B3251F01D3249F4689406C0AA
:101160000E94C408610F711D811D911D11911053C2
:101170001A30B0F33EF490958095709561957F4F4D
:101180008F4F9F4F1F910895592F482F372F262F8C
:10119000660F771F881F991F660F771F881F991F7B
:1011A000620F731F841F951F660F771F881F991F7B
:1011B00008950E941B09A59F900DB49F900DA49FB8
:1011C000800D911D112408952F923F924F925F92AE
:1011D0006F927F928F929F92AF92BF92CF92DF9247
:1011E000EF92FF920F931F93CF93DF93CDB7DEB7AC
:1011F000CA1BDB0B0FB6F894DEBF0FBECDBF099440
:101200002A88398848885F846E847D848C849B8496
:10121000AA84B984C884DF80EE80FD800C811B81A4
:10122000AA81B981CE0FD11D0FB6F894DEBF0FBED3
:10123000CDBFED010895A29FB001B39FC001A39F50
:10124000700D811D1124911DB29F700D811D1124FF
:10125000911D0895DB018F939F930E94D908BF9140
:10126000AF91A29F800D911DA39F900DB29F900DF5
:1012700011240895A1E21A2EAA1BBB1BFD010DC06B
:10128000AA1FBB1FEE1FFF1FA217B307E407F50736
:1012900020F0A21BB30BE40BF50B661F771F881F12
:1012A000991F1A9469F760957095809590959B01A8
:1012B000AC01BD01CF010895052E97FB1EF40094EB
:1012C0000E94730957FD07D00E943A0907FC03D01A
:1012D0004EF40C94730950954095309521953F4FED
:1012E0004F4F5F4F089590958095709561957F4F12
:1012F0008F4F9F4F0895EE0FFF1F0590F491E02D43
:1013000009940F931F93CF93DF938230910510F4CC
:1013100082E090E0E091E901F091EA0130E020E024
:10132000B0E0A0E0309799F42115310509F44AC0E6
:10133000281B390B24303105D8F58A819B81611532
:10134000710589F1FB0193838283FE0111C0408105
:1013500051810281138148175907E0F04817590756
:1013600099F4109761F012960C93129713961C93B0
:101370003296CF01DF91CF911F910F910895009385
:10138000E9011093EA01F4CF2115310551F042171C
:10139000530738F0A901DB019A01BD01DF01F80113
:1013A000C1CFEF01F9CF9093EA018093E901CDCF4E
:1013B000FE01E20FF31F819391932250310939838B
:1013C0002883D7CF2091E7013091E801232B41F406
:1013D00020911A0130911B013093E8012093E7011D
:1013E00020911801309119012115310541F42DB7D3
:1013F0003EB740911C0150911D01241B350BE0911B
:10140000E701F091E801E217F307A0F42E1B3F0B70
:101410002817390778F0AC014E5F5F4F2417350766
:1014200048F04E0F5F1F5093E8014093E70181930E
:1014300091939FCFF0E0E0E09CCFCF93DF930097B4
:10144000E9F0FC01329713821282A091E901B09178
:10145000EA01ED0130E020E01097A1F42081318114
:10146000820F931F2091E7013091E8012817390777
:1014700009F061C0F093E801E093E701DF91CF91BB
:101480000895EA01CE17DF07E8F54A815B819E01E6
:1014900041155105B1F7E901FB83EA83499159915F
:1014A000C40FD51FEC17FD0761F48081918102966E
:1014B000840F951FE90199838883828193819B839F
:1014C0008A83F0E0E0E012968D919C91139700974B
:1014D000B9F52D913C911197CD010296820F931F82
:1014E0002091E7013091E8012817390739F6309744
:1014F00051F51092EA011092E901B093E801A0932E
:10150000E701BCCFD383C28340815181840F951FF3
:10151000C817D90761F44E5F5F4F88819981480FE2
:10152000591F518340838A819B8193838283211534
:10153000310509F0B0CFF093EA01E093E9019ECFC5
:10154000FD01DC01C0CF13821282D7CFB0E0A0E052
:10155000ECEAFAE00C94E6088C01009751F4CB0118
:101560000E9481098C01C801CDB7DEB7E0E10C947F
:101570000209FC01E60FF71F9C0122503109E21716
:10158000F30708F49DC0D901CD91DC911197C617DE
:10159000D70798F0C530D10530F3CE0104978617F0
:1015A000970708F3C61BD70B2297C193D1936D936E
:1015B0007C93CF010E941D0AD6CF5B01AC1ABD0AF5
:1015C0004C018C0E9D1EA091E901B091EA01512CB5
:1015D000412CF12CE12C109731F58091E70190918D
:1015E000E8018815990509F05CC04616570608F011
:1015F00058C08091180190911901009741F48DB75E
:101600009EB740911C0150911D01841B950BE8175A
:10161000F90708F055C0F093E801E093E701F901FC
:1016200071836083A0CF8D919C91119712966C90DD
:10163000129713967C901397A815B90559F56C016C
:1016400042E0C40ED11CCA14DB0420F1AC014A19DB
:101650005B09DA011296159780F0628273825183DA
:101660004083D9016D937C93E114F10471F0D701AB
:101670001396FC93EE93129776CF22968C0F9D1FB4
:10168000F90191838083F301EFCFF093EA01E093B6
:10169000E90169CF4816590608F42C017D01D301F0
:1016A0009ACFCB010E9481097C01009749F0AE01DD
:1016B000B8010E94630BC8010E941D0A870153CF25
:1016C00010E000E050CFFB01DC0102C001900D9260
:1016D00041505040D8F70895FB01DC0101900D9274
:1016E0000020E1F7089510E0C2E6D0E004C0FE015A
:1016F0000E947B092196C336D107C9F7F894FFCF22
:1017000003020100070605043738392F34353678CF
:101710003132332D43303D2B0000EB0180000000BF
:1017200000001002D0019F0100000000DF03200133
:101730003A0239024B616C6B756C61746F722D4BA0
:04174000752100000F
:107E0000112484B714BE81FFF0D085E080938100F7
:107E100082E08093C00088E18093C10086E0809377
:107E2000C20080E18093C4008EE0C9D0259A86E02C
:107E300020E33CEF91E0309385002093840096BBD3
:107E4000B09BFECF1D9AA8958150A9F7CC24DD24C4
:107E500088248394B5E0AB2EA1E19A2EF3E0BF2EE7
:107E6000A2D0813461F49FD0082FAFD0023811F036
:107E7000013811F484E001C083E08DD089C08234E0
:107E800011F484E103C0853419F485E0A6D080C0E4
:107E9000853579F488D0E82EFF2485D0082F10E0AE
:107EA000102F00270E291F29000F111F8ED06801E7
:107EB0006FC0863521F484E090D080E0DECF843638
:107EC00009F040C070D06FD0082F6DD080E0C81688
:107ED00080E7D80618F4F601B7BEE895C0E0D1E017
:107EE00062D089930C17E1F7F0E0CF16F0E7DF06D8
:107EF00018F0F601B7BEE89568D007B600FCFDCFD4
:107F0000A601A0E0B1E02C9130E011968C91119780
:107F100090E0982F8827822B932B1296FA010C0160
:107F200087BEE89511244E5F5F4FF1E0A038BF0790
:107F300051F7F601A7BEE89507B600FCFDCF97BE46
:107F4000E89526C08437B1F42ED02DD0F82E2BD052
:107F50003CD0F601EF2C8F010F5F1F4F84911BD097
:107F6000EA94F801C1F70894C11CD11CFA94CF0C13
:107F7000D11C0EC0853739F428D08EE10CD085E9AC
:107F80000AD08FE07ACF813511F488E018D01DD067
:107F900080E101D065CF982F8091C00085FFFCCF94
:107FA0009093C60008958091C00087FFFCCF809118
:107FB000C00084FD01C0A8958091C6000895E0E648
:107FC000F0E098E1908380830895EDDF803219F02E
:107FD00088E0F5DFFFCF84E1DECF1F93182FE3DFCA
:107FE0001150E9F7F2DF1F91089580E0E8DFEE27F6
:047FF000FF270994CA
:027FFE00040479
:00000001FF
